:020000040800F2
:10000000F814002049010008E7230008092300082C
:10001000E5230008C51100084D2700080000000076
:10002000000000000000000000000000EB230008BA
:10003000D511000800000000E9230008ED230008A6
:100040006301000863010008630100086301000800
:1000500063010008630100086301000863010008F0
:1000600063010008630100086301000863010008E0
:1000700063010008630100086301000863010008D0
:10008000C91100086301000863010008630100084A
:1000900063010008630100086301000863010008B0
:1000A00063010008630100086301000863010008A0
:1000B0006301000863010008630100086301000890
:1000C0006301000863010008630100086301000880
:1000D00063010008012700080D27000863010008DC
:1000E0006301000863010008630100086301000860
:1000F0006301000863010008630100086301000850
:10010000630100086301000863010008630100083F
:10011000630100086301000863010008630100082F
:10012000630100086301000863010008630100081F
:10013000DFF810D000F0CEFD0048004799300008ED
:10014000AFF30080F81400200648804706480047B7
:10015000FEE7FEE7FEE7FEE7FEE7FEE7FEE7FEE777
:10016000FEE7FEE75F24000831010008202A04DBD7
:10017000203A21FA02F00021704721FA02F3D04020
:10018000C2F120029140084319467047D2B201E003
:1001900000F8012B491EFBD270470022F6E710B58C
:1001A00013460A4604461946FFF7F0FF204610BDE5
:1001B00030B505462A460B4612F8010B13F8014BE1
:1001C00008B1A042F8D01CB1002802D06D1CF1E7A4
:1001D000284630BD70B50F4D00B92868002412E0E4
:1001E0000A4602E09E4203D0521C1378002BF9D13C
:1001F000DAB2224305D02BB124B1002100F8011B53
:1002000004E00446401C0678002EE9D12860204610
:1002100070BD0000180000200FB400B58DB010A90B
:1002200009900B9000914FF0FF300A9000200C9045
:1002300005480690054807906A4609A80F9900F0FE
:100240003BFB0DB05DF814FBD5080008F30800086F
:100250002DE9FF5F1D464FF0FF3BD5E90146914672
:100260005F464FF00008A9697F1C01988847296AFA
:10027000824688470028F6D1BAF1FF3F0CD024F41B
:10028000C064002E19DD600614D5BAF12B0F09D019
:10029000BAF12D0F0ED103E0584604B0BDE8F09F2F
:1002A00044F48064A9697F1C01988847761E8246C1
:1002B000002E02DDBAF1300F03D0B9F1000F26D0C5
:1002C00032E0A969761E44F400747F1C01988847C7
:1002D0008246002E05DDBAF1780F06D0BAF1580F2C
:1002E00003D0B9F1000F10D01EE0B9F1000F02D019
:1002F000B9F1100F18D1A969761E24F400747F1C7F
:10030000019888478246102002E0082000E00A2079
:10031000814609E008FB0908A969761E44F40074C7
:100320007F1C019888478246002E05DD49465046CD
:1003300000F0AEFA0028EDDAE96901988847A005D7
:1003400002D46FF00100A8E7E00725D1600613D5BD
:10035000600502D5C8F1000000E0404629680A1D8A
:100360002A600968220501D5087015E0220701D529
:10037000088011E008600FE02868011D296000680E
:10038000210502D580F8008006E0210702D5A0F8FB
:10039000008001E0C0F8008038467EE72DE9FF5F6D
:1003A000D2E901A74FF00008916999461446DDF89B
:1003B00038B0464601988847054659EA0B0005D0F3
:1003C00009E0A169761C019888470546216A2846FC
:1003D00088470028F5D1681C03D05FEACA7005D0B1
:1003E00015E04FF0FF3004B0BDE8F09F2068011D1C
:1003F0002160D0F800800AE05FEACA7001D108F8F5
:10040000015BA169761C7F1E019888470546002F75
:100410001ADD681C18D0B9F1000F0DD0E81705EBF4
:10042000D060421120F01F0059F822102A1A012032
:1004300090400142E0D107E0BBF1000FDCD1216A1E
:10044000284688470028D7D0E16901988847BBF142
:10045000000F07D1002E05DD5FEACA7002D100212E
:1004600088F80010A068B84203DDBBF1000F03D08C
:1004700017B16FF00100B6E73046B4E72DE9FF4F42
:10048000087883B09946FF2805D0491C2D2804D050
:100490000024002008E000200BE00124F9E700EB35
:1004A000800003EB4000491C0B78FF2BF7D104B10F
:1004B000404200230293147819461D462D2C01D08A
:1004C0002B2C04D1521C2D2C13D000240294AA46AC
:1004D0001478FF2C0FD00A25A3FB057801FB0581BA
:1004E0004FF0000C03FB0C11521CE3194AEB010105
:1004F000EEE70124EAE7814453EA010002D019F54E
:10050000C87F06DA03980021C0E9001107B0BDE8F2
:10051000F08F0025AE4E2F46DFF8B882184600F067
:1005200081FBCDE90001B9F1000002DAC9F1000454
:1005300000E004460023A74A1AEB030B42EB045ADF
:1005400012E0E00707D02A4633463846414600F01D
:1005500088FA074688462A4633461046194600F070
:1005600080FA05460E466410002CEAD1DDE9000150
:10057000B9F1000F5A46534606DA00F0E4FA3A465B
:10058000434600F0E0FA05E000F06BFA3A464346D5
:1005900000F067FA029A0AB181F00041039AC2E9B9
:1005A0000001B3E72DE9FF4F1F468DB0D7E90146A3
:1005B0004FF0FF382E2045464FF000090B90B969E7
:1005C0006D1C0E988847396A824688470028F6D104
:1005D000BAF1FF3F0AD024F4D064002E11DDBAF145
:1005E0002B0F08D0BAF12D0F0BD102E0404611B00D
:1005F0008DE744F48064B9696D1C0E988847824683
:10060000761E6946600501D52D2000E02B208DF86F
:10061000000001F1010B0DF1200809E0B9696D1C22
:100620000E98884782460F9844F40074761E056041
:10063000002E02DDBAF1300FF0D00B998A453ED181
:1006400044F0800406E00F99681CA9F1010944F404
:1006500000740860B9696D1C761E0E988847824642
:100660003028F0D02BE00B998A4505D1200603D421
:1006700044F08004761E18E0504602F075F908B385
:100680000DF11301761E44F400748B4508D2AAF1D3
:1006900030000BF8010B200607D5A9F1010003E09B
:1006A000200602D409F101008146A00502D50F9968
:1006B000681C0860B9696D1C0E9888478246002E38
:1006C000D1DC53E0002E51DDBAF1650F02D0BAF152
:1006D000450F4BD1A00549D5B9696D1C24F4407470
:1006E000761E0E9888478246002E0CDD2B2804D0FB
:1006F000BAF12D0F07D144F48074B9696D1C0E98BE
:1007000088478246761EE00501D52D2100E02B2189
:1007100008F8011BCDF82C8021E00DF12901761E8F
:1007200044F4007488450CD2AAF1300010F0FF00A8
:1007300088F8000002D10B99884509D908F1010811
:1007400006E0E00501D5244801E042F20F70814641
:10075000B9696D1C0E98884782460F980560002E77
:1007600004DD504602F000F90028D6D1F9690E9850
:100770008847FF208BF8000088F8000000200690D2
:1007800007904B466A4608A906A8FFF777FEA00522
:1007900002D46FF001002AE714F0240F0AD0E0071A
:1007A00014D1DDE906123868031D3B600068C0E91A
:1007B00000120BE0DDE9060100F070FA0146E007E7
:1007C00004D13868021D3A600068016028460EE7CF
:1007D000000014400000F03FF1D8FFFF00F000429D
:1007E00030F000400AD0C10D01F56071C0F3160071
:1007F00042EA0151C20840071143704700200146F8
:10080000704730B50B46014600202022012409E044
:1008100021FA02F59D4205D303FA02F5491B04FAB9
:1008200002F52844151EA2F10102F1DC30BD2DE9CC
:10083000F05F0546002092469B4688460646814664
:1008400040241BE02846414647462246FFF78EFCDF
:1008500053465A46C01A914110D3114618462246B3
:1008600000F04AFA2D1A67EB01084F462246012094
:10087000002100F041FA17EB00094E41201EA4F1BF
:100880000104DFDC484631462A464346BDE8F09F76
:100890003A2800D2303820F02002412A01D3A2F1B8
:1008A0003700884201D34FF0FF307047026811448F
:1008B0001378016018467047D160044951610449BA
:1008C000116200211161114600F03CBAAD08000828
:1008D0003B0D0008426842B1016811F8013B23B1A9
:1008E000521EC0E90012184670470121C160881EDF
:1008F000704742685AB1C368016843B983688B4244
:1009000005D0491E521CC0E90012002070474FF06C
:10091000FF3070472DE9FE4F804681EA0300C00F8B
:100920000C46009021F0004123F00045B8EB020096
:10093000A94105D24046214690461C460B46024638
:1009400023F00040104347D0270DC7F30A00C3F33C
:100950000A510290401A019040286BDAC3F3130049
:1009600040F4801B0098924620B10023D2EB030A8A
:1009700063EB0B0B01985946C0F14002504600F062
:10098000BBF906460D4650465946019A00F0C3F998
:1009900010EB08006141002487EA115284EAE773F2
:1009A0001A4340D0009A62B3019A012A4FEA0752D3
:1009B00015DC001B61EB02014FF0004202EA075216
:1009C000CDE90042001C41F5801132462B4600F073
:1009D00097FB03B0BDE8F08F40462146F9E7001BC6
:1009E00061EB0201001C41F5801300185B412018E7
:1009F000A2F5001747EB030140EAD570B6196D4127
:100A000011E06D084FEA360645EAC0754FEA075215
:100A1000001B61EB0201001C41F5801149084FEAFF
:100A200030000019514132462B4603B0BDE8F04F6B
:100A300000F057BB0098012240000023D0EB0202D7
:100A400063EBE073009821464FEAE074B8EB0000D6
:100A500061EB0401E9E783F000435BE781F00041CB
:100A600058E72DE9FE4F81EA030404F0004421F029
:100A7000004100944FF0000B23F0004350EA0104C2
:100A80005ED052EA03045BD0C3F30A54C1F30A55A3
:100A90002C44A4F2F3340194A0FB0254C1F31301DB
:100AA00041F48011C3F3130343F4801301FB0244A8
:100AB00000FB034E840A970A44EA815447EA8357AD
:100AC000A4FB076802958D0A05FB07854FEA932C66
:100AD00004FB0C542705029D4FEA065847EA1637D7
:100AE000B5EB08056EEB070C870E920E47EA8117EF
:100AF00042EA8312A7FB0201B6EB0B0164EB000490
:100B00002B0D43EA0C335E1844EB1C50DA46514679
:100B1000E7FB0201C5F313044FEA0B3343EA145316
:100B20004FEA0432019C43EA0603A4F10C04029448
:100B3000009CCDE900B400F0E3FA03B0BDE8F08F0B
:100B400000200146F9E72DE9F04D81EA030404F0A5
:100B5000004B21F0004514464FF0000A23F00041FD
:100B600050EA050220D054EA01021DD0C5F30A570D
:100B70000246C5F31303C1F31300C1F30A5640F450
:100B8000801543F48013A7EB0608101BD64608F225
:100B9000FD3873EB050002D308F1010801E092185B
:100BA0005B41B8F1000F03DA00200146BDE8F08D8B
:100BB00000204FF48011064684460EE0171B73EBAD
:100BC000050705D3121B63EB050306434CEA010C32
:100BD00049084FEA300092185B4150EA0107EDD115
:100BE00052EA030012D082EA040083EA05010843B6
:100BF00005D0101BAB4106D20122002306E00022E3
:100C00004FF0004302E06FF0010253101AEB0600B0
:100C10004CEB085110EB0A0041EB0B01BDE8F04D25
:100C200000F05FBA0EB540F2334202920022CDE9E5
:100C30000022134600F064FA03B000BDC1F30A526B
:100C4000C1F3130140F2FF3341F480119A4202DAFA
:100C500000200146704740F233439A42A2F23342E9
:100C600002DC5242FFF782BA00F046B830B5041EEB
:100C700071F1000404DB4FF00044404264EB0101D9
:100C8000141E73F1000405DB1C464FF00043524272
:100C900063EB0403994208BF904230BD01F000436A
:100CA00030B421F0004150EA010206D00A0DA2F54D
:100CB0006072C1F31301002A02DC30BC00207047CF
:100CC000440F44EAC104C100E01830BC00EBC2503C
:100CD00000F0D0B9064C074D06E0E06840F0010393
:100CE00094E8070098471034AC42F6D3FFF724FA93
:100CF0000833000828330008202A04DB203A00FAD1
:100D000002F1002070479140C2F1200320FA03F362
:100D1000194390407047202A06DBCB17203A41FA4E
:100D200002F043EAE07306E041FA02F3D040C2F178
:100D300020029140084319467047C0B24FF4F05169
:100D400000F02CBA2DE9F34F8BB04FF0000801F101
:100D50000C000C464FF0010B46460DF1080A0190BD
:100D60006269012101989047051E2DD0252D2CD0B8
:100D7000216A8847C0B16269012101989047216AC0
:100D800088470028F7D1411E62690198904700E02A
:100D9000761CA1690B988847216A88470028F7D1FB
:100DA000E1690B988847DBE7A1690B9888470746FC
:100DB000A84201D1761CD3E7E1690B9888477F1CD4
:100DC00002D1B8F1000F6FD047E1002762693D46BC
:100DD0003946019890472A2804D162690121019877
:100DE00090470125DFF888926269012101989047B8
:100DF000A0F130010A290AD24F45E5DC07EB870153
:100E000000EB4107303FDFD445F01005ECE7E90681
:100E100001D46FF000476C280AD04C2814D0682801
:100E200015D06A280DD074281CD07A281AD01DE05D
:100E300062690121019890476C2802D045F00405B1
:100E400014E045F002050DE045F020050AE0626976
:100E5000012101989047682802D045F0080505E077
:100E600045F400656269012101989047C4E9015782
:100E700065283DD019DC58287AD00CDC452837D0BD
:100E800004DC252826D0412831D131E046282FD056
:100E900047282CD12CE05B2877D0612828D0632804
:100EA0007CD0642823D15AE0D1E06F2848D008DCF8
:100EB00066281DD067281BD0692821D06E2816D13E
:100EC00027E0702845D0732868D0752847D0782847
:100ED0000DD14DE0A1690B988847054625283FF4C0
:100EE00069AFE1690B9888476D1C3FF46AAFB4E0C5
:100EF00023466A466FF001000B99FFF753FB9FE012
:100F000045F040006060A80723464FF0000236D449
:100F10003EE0E8077FF447AF2068011D21600068CC
:100F2000290501D506701BE7290701D5068017E7BB
:100F3000A90703D5F117C0E9006111E706600FE7C3
:100F400045F040006060A80723464FF0080216D421
:100F50001EE040F60E0125EA0100606016E045F053
:100F600040006060A80723464FF00A0207D40FE054
:100F700045F040006060A80708D5234610226FF0B6
:100F800001000B99AFF300805AE007E023461022DE
:100F90006FF001000B99FFF75BF951E04FF000098A
:100FA0004F464B46632802D05B2807D041E02079AA
:100FB000C00601D40120A06001273AE06269012146
:100FC000019890475E2805D14FF0010962694946B2
:100FD00001989047216939B900210A46534643F8E0
:100FE0002120491C0829FADBB0B3216969B9C1176E
:100FF00000EBD16253110AEB830122F01F02821A27
:1010000001200B68904003430B6062690121019845
:1010100090475D28E8D1B9F1000F09D00020514672
:1010200051F82020D24341F82020401C0828F7DB4B
:1010300002AB224600976FF001000B99FFF7AEF963
:1010400000280CDA401C08D1BBF1000F05D04FF08E
:10105000FF300DB0BDE8F08FFFE74046F9E7E90744
:1010600001D108F1010806444FF0000B78E60000BA
:10107000CCCCCC0C0029A8BF7047401C490008BF4D
:1010800020F00100704710B4B0FA80FC00FA0CF0B8
:1010900050EA010404BF10BC704749B1CCF12004F0
:1010A00021FA04F411FA0CF118BF0121214308437D
:1010B000A3EB0C01CB1D4FEA00614FEA102042BFA9
:1010C000002010BC704700EBC35010440029A4BF9F
:1010D00010BC7047401C490008BF20F0010010BC44
:1010E000704710B5141E73F1000408DA401C41F17A
:1010F000000192185B411A4301D120F0010010BD9C
:101100002DE9F04D92469B4611B1B1FA81F202E011
:10111000B0FA80F220329046FFF7EEFD04460F460B
:1011200040EA0A0041EA0B0153465A46084313D0ED
:10113000114653EA010019D0C8F140025046FFF7AA
:1011400015F805460E46504659464246FFF7D4FD6F
:10115000084305D0012004E020463946BDE8F08D63
:101160000020054346EAE0762C4337430A9863059E
:10117000E40AA0EB08000022FD0A44EA47540A30C2
:1011800002D500200146E9E7010510196941DDE9B2
:10119000084500196941BDE8F04DA2E77F2801D953
:1011A000002208E0064A02EB5002C007127800D184
:1011B000120902F00F020120904008407047000021
:1011C00082320008FEE70000014800F0C1B80000CC
:1011D000B0100020704772B6FEE710B590F82110ED
:1011E0000022022905D00421816380F820200120FB
:1011F00010BD01680B6823F00E030B6001680B68DB
:1012000023F001030B6090F84030C46B012101FA18
:1012100003F3636080F8211080F82020104610BD91
:101220002DE9F05F90F821100024022903D0042159
:101230008163012485E001680A6822F00E020A60D9
:1012400001680A6822F001020A603F4E3E4FB21563
:10125000DFF8F4C0DFF8F090DFF8ECA0DFF8E8B0DA
:10126000DFF8E4E00168783F13011502ACF1640C8B
:10127000A9F15009AAF13C0AABF1280BAEF1140E0A
:101280004FF48018B14227D9B9420ED0614512D02F
:1012900049451DD0514518D0594518D0714501D147
:1012A000424615E0294EB14201D1012210E0274EFD
:1012B0001436B14201D110220AE0244E2836B14240
:1012C00006D0224A3C32914201D11A4600E02A4619
:1012D0001E49091F0A602BE0B94213D0614517D09F
:1012E000494522D051451DD059451DD0714501D1E8
:1012F00042461AE0B14202D14FF0807215E0134E1F
:10130000B14201D1012210E0104E1436B14201D198
:1013100010220AE00D4E2836B14206D00B4A3C326C
:10132000914201D11A4600E02A46074980394A60B5
:10133000012180F82110002180F82010416B01B1BB
:1013400088472046BDE8F09F800002400804024024
:101350002DE9F05FC16B0A6801680B68046C4FF0FF
:10136000040808FA04F8844D844E854FDFF814C24F
:10137000DFF81492DFF814A2DFF814B2DFF814E2F9
:1013800018EA020F65D05FEA437862D50A689206D0
:1013900003D40A6822F004020A60DFF8F0814FF4F7
:1013A0008062016808F1140813011402414524D930
:1013B000A9420DD0B1420FD0B9421AD0614515D023
:1013C000494515D0514501D1120312E0594501D1CB
:1013D00004220EE0714501D140220AE06D4D143522
:1013E000A94206D06B4A2832914201D11A4600E048
:1013F00022466749091F0A6029E0A94213D0B14279
:1014000015D0B94220D061451BD049451BD051456C
:1014100002D14FF4800217E0414502D14FF08062C3
:1014200012E0594501D104220EE0714501D140225C
:101430000AE0584D1435A94206D0564A2832914246
:1014400001D11A4600E022464B4908394A60C16A78
:1014500071E04FF0020808FA04F818EA020F70D0A1
:101460005FEA83786DD50A68920606D40A6822F08E
:101470000A020A60012180F82110DFF810814FF480
:101480000072016808F1140813011402414524D9BF
:10149000A9420DD0B1420FD0B9421AD0614515D042
:1014A000494515D0514501D1120312E0594501D1EA
:1014B00002220EE0714501D120220AE0354D14359B
:1014C000A94206D0334A2832914201D11A4600E09F
:1014D00022462F49091F0A6029E0A94213D0B142D0
:1014E00015D0B94220D061451BD049451BD051458C
:1014F00002D14FF4001217E0414502D14FF00072C3
:1015000012E0594501D102220EE0714501D120229D
:101510000AE0204D1435A94206D01E4A28329142D5
:1015200001D11A4600E02246134908394A600021D9
:1015300080F82010816A00291CD0BDE8F05F0847C0
:10154000FFE70825A540154214D01A0712D50A68EE
:1015500022F00E020A6090F84020C36B012101FACC
:1015600002F25A60816380F82110002180F8201077
:10157000016BE0E7BDE8F09F080002401C0002405C
:101580003000024044000240580002406C0002401B
:10159000080402401C04024030B560B11A4B0268D6
:1015A00014219A4209D2194B1344B3FBF1F189007B
:1015B000016417490AE0012030BD134B5B4213441C
:1015C000B3FBF1F1890001640F490839C1630221BD
:1015D00080F82110136843F6F0718B43F0E9011491
:1015E0002143D0E902452C43214304692143446946
:1015F0002143846921431943116000214163012281
:1016000042770177084630BD08040240F8FFFDBF6D
:10161000000002402DE9F84FDFF8C8910024A9F13D
:10162000040B23460F2709F1040AABF1040ED1E0A5
:101630000125A54006EA0502AA4276D1DFF8A8C135
:101640004E68A6EB0C0866452BD00DDC032E34D07B
:1016500005DC36B3012E19D0022E2FD11BE0112E3E
:1016600016D0122E2AD119E0B8F5881F19D006DC41
:10167000B8F5803F15D0B8F5801F1FD111E0B8F53F
:10168000001F0ED0B8F5041F18D10AE0CB6815E092
:10169000CB681B1D12E0CB6808330FE0CB680C331E
:1016A0000CE08B682BB1012B4FF0080303D0456190
:1016B00004E0042302E0056100E00023FF2A01D8D2
:1016C000064601E000F104064FEA840501D9A5F1C0
:1016D0002005D6F8008007FA05FC28EA0C0803FA72
:1016E00005F548EA0508C6F800804D68ED0070D59C
:1016F0003E4DAE6946F00106AE61AD6924F00306C9
:1017000005F0010500953A4D06EB050CDCF8085094
:10171000A607360F07FA06F825EA0805DFF8D48091
:10172000404503D14FF0000825E052E0DFF8C880C3
:10173000404502D14FF001081DE0DFF8C080404570
:1017400002D14FF0020816E0DFF8B480404502D124
:101750004FF003080FE0DFF8AC80404502D14FF0B6
:10176000040808E0DFF8A080404502D14FF00508EA
:1017700001E04FF0060808FA06F848EA0508CCF838
:1017800008804D68D9F80060ED024D4601D516433A
:1017900000E096432E604D68DAF80060AD025546D1
:1017A00001D5164300E096432E604D68DBF80060DB
:1017B000AD035D4601D5164300E096432E604D68AB
:1017C000DEF80060ED03754601D5164300E0964350
:1017D0002E60641C0A681646E2407FF429AFBDE81B
:1017E000F88F0000080401400000111000100240B2
:1017F0000000014000080140000C014000100140C1
:101800000014014000180140001C0140014880689C
:1018100070470000080000200248816802781144E7
:101820008160704708000020074810B5016841F04A
:1018300010010160032000F06DF80F2000F006F8A1
:1018400000F024F8002010BD0020024070B50D4DBE
:1018500004464FF47A712878B1FBF0F00A49096820
:10186000B1FBF0F000F0D4FA48B9102C07D20022F6
:101870002146501E00F02EF800206C6070BD012043
:1018800070BD00000800002014000020094808B5C1
:10189000816941F001018161816901F001010091DB
:1018A000C16941F08051C161C06900F08050009071
:1018B00008BD000000100240002809DB00F01F02F4
:1018C000012191404009800000F1E020C0F80011A2
:1018D00070470000F0B40E4B1B680C46C3F30223A4
:1018E000C3F10705042D00D90425191D072901D2CC
:1018F000002300E0DB1E012606FA05F1491E214007
:1019000099409E40761E16403143F0BC00F04ABF1D
:101910000CED00E0064900F0070208684FF6FF03EF
:10192000184040EA0220034A104308607047000054
:101930000CED00E00000FA052DE9F0470F46050028
:1019400061D0434E306800F00700B84209D23068D9
:1019500020F0070038433060306800F00700B842DC
:1019600051D128683B4C810712D5400703D56068E8
:1019700040F4E06060602878000703D5606840F4B8
:10198000605060606068A96820F0F0000843606003
:101990002878C00728D06868012810D0216802285C
:1019A00010D0890700292EDA616821F00301014374
:1019B0006160FFF72BFF804641F288390DE0216816
:1019C0008903EFE78901EDE7FFF720FFA0EB0801AE
:1019D000494502D90320BDE8F0876068696800F0D6
:1019E0000C00B0EB810FEFD1306800F00700B84277
:1019F0000BD9306820F0070038433060306800F0C1
:101A00000700B84201D00120E5E72878400705D556
:101A10006068E96820F4E0600843606028780007A7
:101A200006D56068296920F4605040EAC100606012
:101A300000F038F86168084AC1F30311515CC840EE
:101A40000649086006480068FFF700FF0020C2E76B
:101A500000200240001002406A32000814000020FA
:101A60000C0000200448054900684968044AC1F395
:101A70000221515CC8407047140000200010024051
:101A80007A3200080448054900684968044AC1F3ED
:101A9000C221515CC8407047140000200010024071
:101AA0007A3200080E4A51680E4801F00C03042BEC
:101AB00011D0082B0FD10C48C1F38343C903C05C7C
:101AC0000AD55168084AC1F34041921E515C054A4B
:101AD0005043B0FBF1F070470449484370470000A1
:101AE0000010024000127A005A32000800093D003E
:101AF0002DE9F84F040070D02078C04DC00749D0C0
:101B00006868C0F38100012807D06868C0F38100CD
:101B1000022809D16868C00306D52868800339D532
:101B200060680028E7D035E06068B0F5803F0BD0F2
:101B300010B1B0F5A02F11D0286820F480302860B3
:101B4000286820F4802002E0286840F48030286073
:101B5000606890B1FFF75AFE06460AE0286840F434
:101B600080202860F0E700BFFFF750FE801B64284C
:101B700073D828688003F7D50CE0FFF747FE0646C8
:101B800005E000BFFFF742FE801B6428F0D82868FC
:101B90008003F7D420789A4E80074FF001094FF068
:101BA000000839D5686810F00C0F07D06868C0F3DA
:101BB0008100022809D16868C00306D4286880071C
:101BC00014D52069012808D110E02069B0B1C6F809
:101BD0000090FFF71BFE074605E00AE1FFF716FE3F
:101BE000C01B0228C4D828688007F7D52868616917
:101BF00020F0F80040EAC10028600DE0C6F800803F
:101C0000FFF704FE074604E0FFF700FEC01B0228B2
:101C100023D828688007F7D4207800072CD5794886
:101C2000A169D9B1C0F80090FFF7F0FD074604E0C4
:101C3000FFF7ECFDC01B02280FD8686A8007F7D5B4
:101C400071484FF4FA510068B0FBF1F0009000BF0A
:101C50000098411E0091FAD20EE080E0C0F80080AA
:101C6000FFF7D4FD074604E0FFF7D0FDC01B0228B4
:101C700075D8686A8007F7D42078400760D5E8698E
:101C80000027C00008D4E86940F08050E861E869A6
:101C9000012700F0805000905C480168C90513D40A
:101CA0000168834641F480710160FFF7AFFD824611
:101CB00006E000BFFFF7AAFDA0EB0A0064284ED89B
:101CC000DBF80000C005F5D5E06801280AD008B1AE
:101CD000052813D0286A20F001002862286A20F025
:101CE000040002E0286A40F001002862E06841F246
:101CF000883B98B1FFF78AFD82460BE0286A40F0E6
:101D000004002862EEE700BFFFF780FDA0EB0A01A8
:101D100059455AD8286A8007F6D50CE0FFF776FDBA
:101D2000824605E0FFF772FDA0EB0A0159454CD849
:101D3000286A8007F6D41FB1E86920F08050E86176
:101D4000E06988B36968C1F38101022944D002289F
:101D5000C6F8608004D0FFF759FD044638E034E04F
:101D6000FFF754FD074604E0FFF750FDC01B0228B3
:101D70002BD828688001F7D4206AB0F5803F05D1C0
:101D80006868A16820F4003008436860D4E908015D
:101D90000843696821F4741108436860C6F86090CC
:101DA000FFF734FD044606E025E000BFFFF72EFDF7
:101DB000001B022809D828688001F7D51BE000BF66
:101DC000FFF724FD001B022802D90320BDE8F88F8D
:101DD00028688001F4D40EE00128F7D06868226AF0
:101DE00000F48031914204D1616A00F4701088429D
:101DF00001D00120EAE70020E8E7000000100240DF
:101E00000000424280044242140000200070004062
:101E100010B5401EB0F1807F01D3012010BD4FF0FE
:101E2000E02460610F21601700F0BCFC0020A0617D
:101E300007202061002010BD70477047F8B5016889
:101E400004460868CA684B6910F00F0F4FF0000590
:101E500059D003F0010602F49077374365D0C107EB
:101E600005D0D10503D5616C41F0010161644107E2
:101E700005D5D90703D0616C41F002016164810787
:101E800005D5D90703D0616C41F0040161640107F5
:101E900007D502F02001314303D0616C41F0080105
:101EA0006164616C00293AD0800604D5900602D5A1
:101EB000204600F010FB20684069616CC0F3801080
:101EC000090700D460B3204600F0DEFA20684069BC
:101ED000400621D52068143050E8001F21F0400151
:101EE00040E80012002AF5D1E06BA8B16D494163CA
:101EF000E06BFFF795F9002811D0E06B416B01B062
:101F0000BDE8F040084783060FD593060DD520465F
:101F1000BDE8F84000F0DFBA2046FFF78EFFF8BDBD
:101F20002046FFF78AFF6564F8BD266B2023012E4B
:101F30007CD1C6067AD5D60678D508684868009060
:101F400048694FF00206400640D5E16B08684068DA
:101F50000004000CE8D0A28D8242E5D9E0858869B2
:101F600020282DD020680C3050E8001F21F480710B
:101F700040E80012002AF5D12068143050E8001F14
:101F800021F0010140E80012002AF5D12068143048
:101F900050E8001F21F0400140E80012002AF5D16E
:101FA00084F84230256320680C3050E8001F21F08F
:101FB000100140E80012002AF5D1E06BFFF70DF99F
:101FC0006663A08DE18D401A81B22AE0A08DE18D7B
:101FD000401A81B2E08D0028A6D00029A4D0226842
:101FE0000C3252E8000F20F4907042E80007002FF6
:101FF000F5D12068143050E8002F22F0010240E8AB
:102000000027002FF5D184F84230256320680C307A
:1020100050E8002F22F0100240E80023002BF5D1F9
:1020200066632046FFF708FFF8BDFFE705062BD5DE
:10203000150629D594F841002128F5D1A068B0F5FE
:10204000805F01D12069B0B1206A411C2162216802
:1020500000784860E08C401E0004000CE084E3D16E
:102060002068C16821F08001C1602068C16841F02A
:102070004001C160D8E7206A0088C0F308004860CA
:10208000206A801C2062E5E74006CDD55006CBD5FE
:10209000CA68204622F04002CA6084F8413000F04D
:1020A00032F9C1E77924000870B5040004D094F82F
:1020B0004100002510B106E0012070BD84F84050B9
:1020C000204600F023F8242084F841002068C168ED
:1020D00021F40051C160204600F05EFA20680169D9
:1020E00021F4904101612068416921F02A01416198
:1020F0002068C16841F40051C1606564202084F803
:10210000410084F842006563002070BDF0B585B0E1
:10211000002400940194029403940646374F036808
:10212000374902220320374DBB4226D18B6943F445
:1021300080438B618B6903F4804304938B6943F084
:1021400004038B618969039001F004010491110279
:10215000CDE9001269462846FFF75CFA2815CDE95B
:102160000004694628460294FFF754FA00221146FB
:102170002520FFF7AFFB25203BE0234FBB423AD1A0
:10218000CB6943F40033CB61CB6903F40033049390
:102190008B6943F004038B618969039001F00401AA
:1021A00004910421CDE9001269462846FFF732FA6E
:1021B0000820CDE90004694628460294FFF72AFA70
:1021C000134D1248C5E900048020C5E902402C6186
:1021D0006C61AC612846EC61FFF7DEF908B1FEF7EF
:1021E000FAFFF5630022114626206E62FFF772FBAC
:1021F0002620FFF761FB05B0F0BD0000003801406C
:102200000010024000080140004400406C00024001
:10221000B010002090F84230202B01D002207047EF
:1022200021B11AB10023036300F012BA01207047F4
:1022300030B40B4A016891420FD10A4A0A4C918886
:1022400013786354491CC1F30B0191800A2151702A
:1022500030BC01220349FFF7DDBF30BC70470000EE
:102260000038014000000020200000202DE9F84344
:10227000044690F841001F4616460D46202802D01D
:102280000220BDE8F8837DB176B100206064212092
:1022900084F84100FFF7BAFAA6848046E684A06875
:1022A000B0F5805F02D003E00120EAE7206910B1B9
:1022B0002E4600250EE000260CE08021204600F08E
:1022C000E2F9A0B9AEB116F8010B21684860E08CC4
:1022D000401EE084E08C43464FF000020097002847
:1022E000EBD14FF04001204600F0CDF930B1032092
:1022F000C7E735F8020BC0F30800E6E7202084F8B2
:1023000041000020BDE77047FEE70000094808B51E
:10231000416941F0010141614069002200F0010082
:10232000009011461020FFF7D5FABDE808401020B4
:10233000FFF7C2BA001002400D4808B5816941F0AC
:1023400010018161816901F010010091816941F002
:1023500020018161816901F020010091816941F0D2
:1023600004018161806900F00400009008BD000054
:10237000001002400C4810B50A4901604FF4165194
:102380004160002181600C22C160C0E904128161BA
:10239000C161FFF789FE002803D0BDE81040FEF7B9
:1023A0001ABF10BD00380140201000200C4810B5A5
:1023B0000A4901604FF4E1314160002181600C2243
:1023C000C160C0E904128161C161FFF76DFE0028A0
:1023D00003D0BDE81040FEF7FEBE10BD0044004033
:1023E00068100020FEE7FEE77047704710B5FFF762
:1023F00013FA02490120087010BD000006000020F9
:1024000030B58FB028216846FDF7C7FE14210AA811
:10241000FDF7C3FE01210804CDE900100024029459
:1024200002250491CDE907504FF4E0100990684669
:10243000FFF75EFB08B172B6FEE70F20CDE90A0593
:102440004FF48060CDE90C4002210AA80E94FFF7FA
:1024500073FA002801D072B6FEE70FB030BD7047A6
:1024600010B50178012903D10021017000F054F961
:10247000BDE8104000F06CB910B5406A0021C1857C
:10248000C184FFF7DAFC10BD01680C3151E8002F60
:1024900022F4907241E80023002BF5D10168143139
:1024A00051E8002F22F0010241E80023002BF5D172
:1024B000016B012909D101680C3151E8002F22F08C
:1024C000100241E80023002BF5D1202180F84210B2
:1024D00000210163704708B590F84210222901D00D
:1024E000022008BD82684FF480539A4201D10169ED
:1024F00021B1816A9A421BD04AB10AE00268816A1E
:102500005268C2F308020A80816A891C08E00269E5
:1025100072B10268526802F07F020A70816A491C37
:102520008162C18D491E0904090CC18503D01BE0DD
:1025300002685268F1E70168CA6822F02002CA60A6
:102540000168CA6822F48072CA6001684A6922F090
:1025500001024A61202180F8421000214163026B90
:10256000012A03D0FFF764FE002008BD0163016863
:102570000C3151E8002F22F0100241E80023002B1B
:10258000F5D101680A68D20602D50A684968009147
:10259000818DFFF751FCE7E770B5044600680169DB
:1025A000E26821F44051114301612169A0680843A8
:1025B000616908432168CA6841F20C639A43024387
:1025C000CA6020684169A26921F4407111434161E8
:1025D0001E492068884202D1FFF754FA01E0FFF754
:1025E00041FA00EBC00101EB001260686421800039
:1025F000B2FBF0F3B3FBF1F36FF018067343B2FBD9
:10260000F0F5B2FBF0F605EB8305322303EB05157D
:10261000B5FBF1F5B6FBF1F605F0F00505EB061597
:10262000B2FBF0F6B2FBF0F0B0FBF1F06FF0180285
:10263000504306EB800003EB0010B0FBF1F0216883
:1026400000F00F002844886070BD00000038014091
:1026500081628285C28500214164222180F8421076
:10266000016921B10168CA6842F48072CA600168D8
:102670004A6942F001024A610068C16841F02001E4
:10268000C160002070472DE9F041984617460E467C
:102690000446069D27E0681C25D02DB1FFF7B6F84B
:1026A000A0EB0800A8421ED920680C3050E8001F9B
:1026B00021F4D07140E80012002AF5D120681430CE
:1026C00050E8001F21F0010140E80012002AF5D176
:1026D000202084F8410084F84200002084F8400063
:1026E0000320BDE8F0812068006836EA000004D0CD
:1026F0000020B842CFD00020F3E70120F9E7000026
:102700000148FFF79BBB0000201000200148FFF7A5
:1027100095BB0000681000200A484178012901D9C2
:10272000491E4170C9B201290AD100224270064BEC
:1027300081885A54491CC1F30B01818001218170A9
:10274000704700000000002020000020FEE700008D
:1027500010B5094CA07801280CD108A1084803E065
:1027600000F0D0FC05A10020FDF734FD0028F7D1D2
:10277000A070A08010BD0000000000200A00000032
:10278000200000200FB4054B10B503A9044A02989D
:1027900000F0F2F810BC5DF814FB00008130000876
:1027A0001C0000200907090E002804DB00F1E020CE
:1027B00080F80014704700F00F0000F1E02080F86E
:1027C000141D704702E008C8121F08C1002AFAD180
:1027D00070477047002001E001C1121F002AFBD1A1
:1027E000704700002DE9FF5F82B00021DDE9043071
:1027F000020DDDF840B0034318D044F61050A2F2A9
:10280000FF3242431514119801281FD0A5EB0B008D
:10281000401C5FEA000A4FF000064E4FDFF8389187
:10282000B046504615D5CAF1000413E011980124B2
:102830004AA3012801D16FEA0B010298119AC0E95D
:102840000031C0E9024206B0BDE8F09FCBF10000C4
:10285000DFE704460021404A491842EB0450CDE925
:10286000001012E0E00707D032463B46404649469A
:10287000FEF7F7F88046894632463B461046194631
:10288000FEF7EFF806460F466410002CEAD1DDE9AA
:102890000401DDE90023BAF1000F06DAFEF7E1F8E2
:1028A00042464B46FEF7DDF805E0FEF74CF942469E
:1028B0004B46FEF748F904460E460022284BFEF729
:1028C000D5F903D84FF0FF30014607E00022254B31
:1028D00020463146FEF71EF8FEF7B0F9102409E055
:1028E000002C0ADB0A220023FDF7A1FF039B3032F4
:1028F0001A55641E50EA0102F2D1641C039AC4F115
:1029000011031444119A012A03D0012208430DD166
:102910000AE0084304D000204FF0110B119072E739
:10292000A3EB0B056D1E0DE05B4504DD4FF00002CF
:1029300005F1010504E003DA4FF00002A5F10105FD
:10294000002AECD002981199C0E90231C0E9004593
:1029500079E70000000014400000F03F3000000064
:102960000000F0430000E03F30380A2801D2012087
:1029700070470020704700002DE9FF4F95B09A4640
:10298000884606460025EEE1252877D10024274613
:10299000F94A0121039400E0044316F8013F203B6B
:1029A00001FA03F01042F7D130782A2811D06FF0E5
:1029B0002F033078A0F13002092A16D8039A44F088
:1029C000020402EB820203EB42021044761C0390E5
:1029D000EFE758F8042B0392002A03DA504244F43C
:1029E0000054039044F00204761C30782E2816D14F
:1029F00016F8010F44F004042A280DD06FF02F02BE
:102A00003078A0F13003092B09D807EB870302EBDC
:102A10004303C718761CF3E758F8047B761C30781C
:102A20006C280FD006DC4C2817D068280DD06A28F7
:102A300014D104E0742810D07A280FD10DE044F4AA
:102A400000140AE044F4801401E044F44014727865
:102A5000824202D104F58014761C761C30786628F8
:102A60000BD013DC582877D009DC002875D0452816
:102A7000F6D04628F4D047281AD193E118E063280D
:102A800035D0642879D0652812D18BE1702873D0B5
:102A900008DC6728F1D069286FD06E280DD06F2828
:102AA00006D1ACE073282CD0752874D0782853D088
:102AB0005246179990476D1C54E1C4F30250022806
:102AC00009D003280DD0D8F8001004280DD00D60CF
:102AD00008F1040846E1D8F80010EA17C1E90052ED
:102AE000F6E7D8F800100D80F2E70D70F0E718F85F
:102AF000041B8DF8001000208DF80100EB4601202A
:102B000003E058F804BB4FF0FF3061074FF00001BD
:102B100002D40DE009F101018946B9420FDA81457D
:102B2000F8DB1BF809100029F4D108E009F10101D4
:102B300089468142FADB1BF809100029F6D1039877
:102B40005346A0EB090721463846179A00F080FA51
:102B5000284400EB090507E044E008E10DE01BF81C
:102B6000010B524617999047B9F10109F7D2534624
:102B700021463846179AF2E039E00A21C4F302529E
:102B80004FF0000B0091022A06D058F8040BC11731
:102B9000032A09D00AE023E008F1070020F0070229
:102BA000F2E80201904605E000B2C117042A01D103
:102BB00040B2C117002906DA0A460021404261EB03
:102BC00002012D2202E0220504D52B228DF80420DB
:102BD000012203E0E20701D02022F7E7914657E007
:102BE0000A2100E010214FF0000B00910BE01021B2
:102BF0004FF0000B44F004040827009103E0082084
:102C00004FF0000B0090C4F30252022A05D058F88E
:102C1000040B0021032A08D008E008F1070020F087
:102C20000702F2E80201904603E080B2042A00D1D4
:102C3000C0B24FF0000922072AD53278702A07D097
:102C4000DDF800C08CF0100C5CEA0B0C05D00EE037
:102C500040228DF80420012208E050EA010306D04A
:102C600030238DF804308DF8052002229146009B18
:102C700083F0080353EA0B030AD150EA010201D1A1
:102C8000620705D530228DF804204FF001097F1E20
:102C90003278582A04D039A20C920CAA02920BE086
:102CA0003BA2F9E75B46009AFDF7C1FD0C9B9B5CDC
:102CB000029A521E0292137050EA0102F2D1029857
:102CC00004A9081A00F1200B600702D524F480340F
:102CD00000E001275F4502DDA7EB0B0000E00020CC
:102CE00000EB0B01009003984944401A0390E00365
:102CF00006D453462146179A039800F0A9F90544D3
:102D0000002706E001A85246C05D179990476D1C48
:102D10007F1C4F45F6DBE0030CD553462146179A3E
:102D2000039800F095F9054404E0302052461799C5
:102D300090476D1C0099481E00900029F5DC08E0C2
:102D40000298029952460078491C029117999047BF
:102D50006D1CBBF10001ABF1010BF1DC5BE100F09C
:102D600065F90544761C307800287FF40DAE19B063
:102D70002846BDE8F08F00000928010030313233C9
:102D800034353637383961626364656600000000A7
:102D90003031323334353637383941424344454691
:102DA00000000000600700D4062708F1070020F0AB
:102DB0000700F0E80223804603F0004C5FEA0C00B5
:102DC00001D097A009E0200501D596A005E0E00715
:102DD00001D095A001E0AFF24C001390307823F0C1
:102DE000004365280CD006DC452809D046281DD0B4
:102DF00047287FD13BE0662818D067287AD136E093
:102E00000021112F01DB112000E0781CCDE9000129
:102E100004A90CA8FFF7E6FCDDE90D010C9A4FF0C0
:102E2000000B07F10109109200914EE04FF00040B5
:102E30000097CDE9011004A90CA8FFF7D3FCDDE948
:102E40000D020C9B0F994FF0000B914610930092CE
:102E500011B9791C00EB0109B7EB090003D4C0F1EB
:102E6000FF3B07F10109A9EB0700019042E0012FA8
:102E700000DA01270021112F01DD112000E0384682
:102E8000CDE9000104A90CA8FFF7ACFCDDE90D01B8
:102E90000C9A00914FF0000BB946109221070FD405
:102EA000009A4A4503DA914601E0A9F10109B9F116
:102EB000010F05DD109AA9F10101515C3029F4D010
:102EC000B84202DA10F1040F03DA0121CDE9011052
:102ED00010E0002803DC8344A9EB000102E0411C60
:102EE000494500DD8946A0EB0B00401C01904FF0E6
:102EF00000400290200705D40198484502DB4FF0BE
:102F0000FF30019000208DF84B0002980DF14B0727
:102F1000B0F1004F25D002200C902B200D9002988C
:102F200000280CDA404202902D200D9007E00A2183
:102F30000298FDF766FC3031029007F8011D0C99EC
:102F4000481E0C900029F2DC02980028EFD1791E6F
:102F50000D980870307800F0200040F0450007F828
:102F6000020D11A8C01BC01D02901398007800B17B
:102F7000012000EB0901019801EBE0710298014486
:102F80000398401A401E0390E00306D4534621469E
:102F9000179A039800F05CF805441398007818B16C
:102FA0005246179990476D1CE00323D5534621469E
:102FB000179A039800F04CF805441BE0BBF1000F92
:102FC00007DB0098584504DD1098179910F80B009E
:102FD00001E0179930205246904701980BF1010B00
:102FE000401E05F10105019004D12E20524617998B
:102FF00090476D1CB9F10001A9F10109DEDC05E083
:1030000017F8010B5246179990476D1C0299481EFC
:1030100002900029F4DC53462146179A03989EE655
:103020002D0000002B000000200000002DE9F041E1
:10303000044600251E461746880404D405E0394698
:103040002020B0476D1C641EF9D52846BDE8F081EC
:103050002DE9F041044600251E469046C80301D5DF
:10306000302700E02027880404D505E04146384693
:10307000B0476D1C641EF9D52846BDE8F0810000FC
:1030800013B54FF6FF73012269460248FFF7EEF8C9
:1030900000981CBD68100020FEF7C6FBFFF7B0F9D2
:1030A000FFF74AF9FFF732F9FFF780F9FFF762F906
:1030B000012207490748FFF7ADF8FF23262206A1A2
:1030C0000448FFF7D3F80E48FFF7CAF9FBE7000002
:1030D0000000002020100020245043415330332CA6
:1030E000312C312C302C302C312C302C312C312CFB
:1030F000302C302C312C312C312A31450D0A000076
:10310000060000207FB5044629A1FDF751F80028EC
:103110004DD001AB6A4628A12046FDF77DF803AAF1
:103120002EA12046FDF778F802AA3B492046FDF77C
:1031300073F80098FDF752FB02460B4637A0FFF7E5
:1031400021FB0198FDF74AFB02460B4636A0FFF72C
:1031500019FB029842F21074642590FBF4F190FB85
:10316000F5F26FF01806714302EB810290FBF5F166
:1031700090FBF4F305FB11012EA0FFF703FB03986E
:1031800090FBF5F105FB110390FBF5F290FBF4F1D8
:1031900090FBF4F03546694302EB810218210830B8
:1031A00090FBF1F401FB140126A0FFF7EBFA7FBDC1
:1031B00024474E524D43000024474E524D432C2588
:1031C0002A5B5E2C5D2C252A5B5E2C5D2C25662CF3
:1031D000252A5B5E2C5D2C256600000024474E529C
:1031E0004D432C25642C252A5B5E2C5D2C252A5B07
:1031F0005E2C5D2C252A5B5E2C5D2C252A5B5E2CCB
:103200005D2C252A5B5E2C5D2C252A5B5E2C5D2CBB
:10321000252A5B5E2C5D0000C4320008CEB3B6C820
:103220003A2025660A000000BEADB6C83A202566E1
:103230000A0000002564C4EA2564D4C22564C8D508
:103240000A000000CAB1BCE43A202564CAB1256472
:10325000B7D62564C3EB0A00010202030405060782
:1032600008090A0B0C0D0E0F1010000000000000E2
:103270000000010203040607080900000000010223
:103280000304DDDDDDDDDCBBBBDDDDDDDDDDDDDD66
:10329000DDDD988888888888888877777777778849
:1032A000888885555556666666666666666666688B
:1032B0008888833333322222222222222222222889
:1032C000888D000024474E524D432C252A5B5E2CEE
:1032D0005D2C252A5B5E2C5D2C252A5B5E2C5D2CEB
:1032E000252A5B5E2C5D2C252A5B5E2C5D2C252A15
:1032F0005B5E2C5D2C252A5B5E2C5D2C252A5B5E9B
:103300002C5D2C25640000002833000800000020FC
:1033100020000000C42700084833000820000020D7
:10332000D8140000D42700080000000000000000AE
:103330000100000010000000000000000024F40064
:08334000000000000000000085
:0400000508000131BD
:00000001FF
